:10000000CC7F002001030000150600001D06000043
:10001000250600002506000025060000000000005F
:1000200000000000000000000000000025060000A5
:1000300025060000000000002506000031800300B6
:100040003D8003009D80030025060000250600007A
:1000500025060000250600002506000025060000F4
:1000600025060000250600002506000025060000E4
:1000700025060000250600002506000025060000D4
:1000800025060000250600002D060000498003001B
:1000900055800300618003002506000025800300D1
:1000A00025060000250600002506000025060000A4
:1000B0002506000025060000250600002506000094
:1000C0002506000025060000250600006D800300BF
:1000D00025060000250600002506000079800300A3
:1000E000250600002506000000000000250600008F
:1000F0008580030025060000250600002506000077
:100100002506000025060000250600002506000043
:100110000000000000000000250600002506000089
:100120002506000025060000250600002506000023
:100130002506000025060000A98003002506000012
:1001400000000000000000000000000000000000AF
:100150002506000025060000B5800300C1800300CD
:10016000000000000000000000000000000000008F
:10017000000000000000000000000000000000007F
:10018000000000000000000000000000000000006F
:10019000000000000000000000000000000000005F
:1001A000000000000000000000000000000000004F
:1001B000CD8003002506000025060000250600006E
:1001C0002506000025060000250600002506000083
:1001D0002506000025060000250600002506000073
:1001E000250600002506000025060000000000008E
:1001F0000000000025060000250600009180030095
:100200002506000025060000000000000000000098
:100210002506000025060000250600002506000032
:100220002506000025060000250600002506000022
:100230002506000025060000250600002506000012
:100240002506000025060000250600002506000002
:1002500025060000250600002506000025060000F2
:0C02600025060000250600002506000011
:1003000090B583B000AF764B1A68764B9A4200D115
:1003100062B6754B1B685C331B6874489847724B18
:100320001B6864331B68002098476F4B1B68883339
:100330001B681C466C4B1B6860331B689847024661
:1003400013469B0013445B001A46694BA3FB021340
:100350009B091846A047674B1B68B3F1FF3F00F0AD
:10036000DB80654B1B68B3F1FF3F00F0D580634B2A
:100370001B68B3F1FF3F00F0CF80614B1B68B3F106
:10038000FF3F00F0C9805F4B1B68B3F1FF3F00F0F7
:10039000C380584B1B68B3F5603F80F0BD80564B5F
:1003A0001B68B3F1005FC0F0B780544B1A68564B1E
:1003B0009A4280F0B180524B1B68B3F1005FC0F0ED
:1003C000AB80504B1A68504B9A4280F0A580494B45
:1003D0001B68002B00F0A080474B1B68002B00F02F
:1003E0009B80464B1B68002B00F09680444B1B689B
:1003F000002B00F09180434B1B68002B00F08C8099
:10040000424B1B687B603C4B1B683B6009E07B6890
:100410001A683B681A603B6804333B607B680433AE
:100420007B603A68354B1B689A42F0D3894A106862
:10043000894A11684FF000028842B8BF40F8042B87
:10044000FFF6FAAF4FF0804038F0E8F8304B1B6809
:100450001B684FF0804098472D4B1B681C331B686E
:100460004FF0804098470346002B06D0284B1B686E
:1004700018331B684FF080409847254B1B6820338A
:100480001B681C46184B1B6860331B689847024664
:1004900013469B0013445B004FF080401946A04771
:1004A0001B4B1B6834331B684FF080409847184B38
:1004B0001B680C331B684FF080409847144B1B6837
:1004C00008331B684FF080409847124B1B681B682D
:1004D0002220984738F094FB00F092F98EE000BF9C
:1004E000D07F0020EA5236BC440000014005C00124
:1004F000F119760500800300048003000C800300DE
:1005000010800300148003000070002008800300A6
:1005100040000001480000014FF0804038F07EF8B4
:10052000384B1B681B684FF080409847354B1B6861
:100530001C331B684FF0804098470346002B06D0C1
:10054000304B1B6818331B684FF0804098472D4B89
:100550001B6820331B681C462B4B1B6860331B68D1
:100560009847024613469B0013445B004FF08040BF
:100570001946A047234B1B6834331B684FF080405B
:100580009847204B1B680C331B684FF080409847FE
:100590001C4B1B6808331B684FF0804098471B4B6F
:1005A0001B681B6822209847164B1B6820331B686A
:1005B0001C46154B1B6860331B6898470246134660
:1005C0009B0013445B004FF080401946A0470E4B40
:1005D0001B6888331B681C460B4B1B6860331B6809
:1005E00098470346642202FB03F2094BA3FB021364
:1005F0009B091846A04738F003FBD5E70C37BD46EA
:1006000090BD00BF4000000144000001480000010F
:10061000F119760580B400AFFEE700BF80B400AFEB
:10062000FEE700BF80B400AFFEE700BF80B500AFBB
:10063000054B1B681B684FF080409847034B044AEA
:100640001A6038F0E3FA80BD40000001D07F00203E
:0C065000EA5236BC108003001480030046
:1008000080B500AF15F0B4F900F068F8034683F046
:100810000103DBB2002B00D0FEE700F03DF90346F8
:1008200083F00103DBB2002B01D000F0D1FC15F006
:1008300001FB0CF0DBF800F001F8FAE780B582B0BC
:1008400000AF0A4B1B6860331B689847024613468B
:100850009B0013447B60064B1B6820331B684FF0E2
:100860008040796898470837BD4680BD4400000144
:100870004000000180B500AF4FF0804037F0CEFE61
:1008800000BF4FF0804015F069FB034683F0010381
:10089000DBB2002BF5D14FF0804015F06BFD4FF02F
:1008A000804015F05FFD0346002B03D04FF08040E1
:1008B00015F052FDFFF7C2FF4FF0804015F05DFDCF
:1008C0002220002115F0D6FA4FF0804015F03FFDB0
:1008D0004FF0804015F036FD80BD00BF80B5A0B060
:1008E00000AFFFF7C7FF03F027FE0346042B01D03C
:1008F0000023CAE007F12303184603F065FF03460F
:10090000042B01D00023C0E007F11C03184604F0BB
:1009100019FC0346042B01D00023B6E007F11403B1
:10092000184604F0BFFB0346042B01D00023ACE0C3
:10093000FB1D184603F01EFF0346042B01D00023C5
:10094000A3E007F10803184604F0E8F90346042B76
:1009500001D0002399E0D7E902231046194601F09F
:1009600041F9034683F00103DBB2002B01D00023E1
:100970008BE097F8233087F87C30FB7987F87D305F
:1009800007F17C0318460EF065FF034683F0010370
:10099000DBB2002B01D0002377E010F0B5FA03465C
:1009A00083F00103DBB2002B01D000236DE01423A0
:1009B00087F82C3007F12C0207F144031046194642
:1009C00010F0DEFA034683F00103DBB2002B01D006
:1009D00000235AE0152387F82430012387F82530B7
:1009E000002387F82630012387F82730002387F873
:1009F0002B3007F1240207F134031046194610F09A
:100A0000BFFA034683F00103DBB2002B01D00023C1
:100A10003BE07B6C7B6597F84830012B02D16FF08F
:100A2000604301E040F2FF73BB6597F8483087F8F8
:100A30005C307B6B3B6697F83830012B02D16FF04E
:100A4000604301E040F2FF737B6697F8483087F817
:100A50006830082387F87930FB7F184600F0F4FBF4
:100A600003467B6707F15403FB66022387F878305F
:100A7000084B3B6707F16C03184605F037FF034648
:100A8000032B01D0002300E0012318468037BD4628
:100A900080BD00BFA112000080B5D2B000AF4FF4FE
:100AA000BE73C7F8443107F15C03184604F0C2FA7C
:100AB0000346042B01D0002384E307F154031846B6
:100AC00004F0F0FA0346042B01D000237AE307F187
:100AD0007B03184604F024F80346042B01D00023BE
:100AE00070E34FF4C473C7F8443197F85E2097F869
:100AF00057301046194600F025FE034683F00103E7
:100B0000DBB2002B01D000235CE34FF4C773C7F8BE
:100B1000443107F1B003184600F03AFE034683F073
:100B20000103DBB2002B01D000234BE34FF4CD7364
:100B3000C7F8443197F85E3087F8243197F857307A
:100B400087F8253197F8593087F8263197F85D30C6
:100B500087F8273197F8563087F8283107F59273D0
:100B6000184602F0DDFC034683F00103DBB2002BE4
:100B700001D0002326E397F87B3018460CF080F96B
:100B8000034683F00103DBB2002B01D0002319E3FD
:100B900007F1740318460CF025FA034683F00103AD
:100BA000DBB2002B01D000230CE340F2AF13C7F8F7
:100BB000443104F069FE034683F00103DBB2002BED
:100BC00001D00023FEE240F2B513C7F844313B1DCB
:100BD000184603F027FE0346042B01D00023F1E260
:100BE00007F16803184604F025F80346042B01D0EA
:100BF0000023E7E2FB1C184603F0BCFD0346042B70
:100C000001D00023DEE207F17A03184603F0DCFD91
:100C10000346042B01D00023D4E207F160031846F9
:100C200004F090FA0346042B01D00023CAE207F136
:100C30005C03184604F0FEF90346042B01D00023A0
:100C4000C0E207F15403184604F02CFA0346042BC3
:100C500001D00023B6E207F14C03184603F08AFFE7
:100C60000346042B01D00023ACE207F140031846F1
:100C700003F030FE0346042B01D00023A2E207F16B
:100C80003803184603F062FE0346042B01D000230C
:100C900098E207F13003184603F094FE0346042B54
:100CA00001D000238EE207F12803184603F0C6FEA8
:100CB0000346042B01D0002384E207F120031846E9
:100CC00003F0F8FE0346042B01D000237AE207F17B
:100CD000E403184604F078F80346042B01D00023FF
:100CE00070E207F14803184603F0C4FD0346042BE5
:100CF00001D0002366E207F10803184604F044F926
:100D00000346042B01D000235CE297F84F3097F89C
:100D10004D2002FB03F387F8433107F1DC0318464B
:100D200003F070FF0346042B01D000234AE207F1D1
:100D30007E03184603F0C8FF0346042B01D00023AE
:100D400040E240F2EB13C7F8443197F85E3087F881
:100D50007C3097F8573087F87D3007F17C031846D0
:100D600001F0C8FF034683F00103DBB2002B01D082
:100D7000002327E240F2F313C7F8443140F2FD1399
:100D8000C7F8443140F21623C7F844313B1D1B68B5
:100D9000C7F82C31B7F8DE309BB2A7F83031B7F87E
:100DA000E0309BB2A7F8323197F84C3087F83431F5
:100DB00097F8513087F8353197F8433187F8363155
:100DC00097F84E3087F83731102387F8383107F518
:100DD000967318460DF004FF034683F00103DBB25F
:100DE000002B01D00023EDE10DF0D2FE034683F08D
:100DF0000103DBB2002B01D00023E3E140F22A2300
:100E0000C7F8443107F59E7318460DF03BFF0346C3
:100E100083F00103DBB2002B01D00023D2E107F104
:100E2000CC0318460DF0D2FE034683F00103DBB27B
:100E3000002B01D00023C5E14FF40E73C7F84431F5
:100E4000D7F8CC30C7F8C43097F85E3087F8C83090
:100E500097F84F3087F8C93097F84D3087F8CA3087
:100E600097F85C30012B14BF00230123DBB287F815
:100E7000CB30D7F8B030C7F8C03007F1C003184600
:100E80000CF06EF9034683F00103DBB2002B01D0B6
:100E9000002397E14FF41473C7F8443197F84C30AE
:100EA00087F8703097F8433187F871300A2387F854
:100EB0007230FB1C1B7887F8733007F170031846FB
:100EC0000BF096F9034683F00103DBB2002B01D04F
:100ED000002377E140F25A23C7F8443197F84C30A9
:100EE00087F8B630B7F86C309BB2A7F8B43007F18A
:100EF000B403184613F0CCF9034683F00103DBB2C8
:100F0000002B01D000235DE140F26A23C7F8443191
:100F100097F85E3087F8D03007F1D003184612F00A
:100F2000B1FD034683F00103DBB2002B01D00023A7
:100F300048E14FF41E73C7F84431B7F86C30A7F896
:100F4000BC3007F1BC03184613F038F8034683F0B1
:100F50000103DBB2002B01D0002333E140F28923EF
:100F6000C7F8443107F1E403C7F89030D7F8CC3024
:100F7000A033C7F89430B7F87E301A4613469B006A
:100F800013445B00C7F89830D7F8B0301B6AC7F835
:100F90009C303B1D1B689BB2A7F8A03007F14803AB
:100FA0001B88C7F8A430FB1C1B7887F8A83097F87B
:100FB0004C3087F8A93097F8513087F8AA3097F865
:100FC000433187F8AB3097F84E3087F8AC3007F1F3
:100FD0009003184613F038FB034683F00103DBB29D
:100FE000002B01D00023EDE040F2A323C7F84431E9
:100FF000D7F8CC30F033C7F88030D7F8CC3003F5D1
:10100000A073C7F884303B1D1B689BB2A7F88830DB
:101010007B6FB3F84830A7F88A3097F8433187F8E8
:101020008C3007F18003184613F056FF034683F017
:101030000103DBB2002B01D00023C3E04FF42D737A
:10104000C7F8443197F87A2007F118031A7007F1AE
:101050001803184607F0CEFF034683F00103DBB206
:10106000002B01D00023ADE04FF43373C7F84431B7
:1010700040F2D723C7F8443107F148031B88C7F86B
:10108000B83007F1B80318460BF0D4FE034683F0DE
:101090000103DBB2002B01D0002393E040F2E623F2
:1010A000C7F844314FF43C73C7F84431D7F8B03037
:1010B000DB6AC7F8D43097F84C3087F8D83097F807
:1010C000513087F8D930FB1C1B7887F8DA3007F1EC
:1010D000D403184612F07CFA034683F00103DBB216
:1010E000002B01D000236DE040F20233C7F84431F9
:1010F00040F21B33C7F84431D7F8B03003F11A027D
:1011000007F11C031A6007F11C0318460BF00EFED2
:10111000034683F00103DBB2002B01D0002351E032
:101120004FF44A73C7F844314FF44C73C7F8443155
:10113000042008F09DF9034683F00103DBB2002B85
:1011400001D000233EE040F23633C7F8443107F1C6
:10115000200318460BF02CFC034683F00103DBB29E
:10116000002B01D000232DE040F24233C7F8443178
:1011700040F25533C7F8443140F26333C7F8443185
:101180004FF45B73C7F8443140F27533C7F844310C
:1011900007F10803D3E9002307F11001C1E9002397
:1011A00007F1100318460AF0AFFF034683F001036E
:1011B000DBB2002B01D0002304E04FF45F73C7F8CB
:1011C00044310123184607F5A477BD4680BD00BF12
:1011D00030B58BB000F0EAFD0A238DF814300723F8
:1011E00005228DF8163008218DF8193000238DF86E
:1011F00015208DF817108DF81820079308938DF897
:1012000024308DF825301D4600F0D0FD0EF03CFB5B
:1012100000F0CCFD431B632B044603D905A80EF058
:101220008FFE254612F076F9632C09D900F0F8F804
:1012300030B9684600F092F810B168460EF0DCFE56
:10124000FFF7FCFAE0E700BF80B483B000AF0346CD
:10125000FB71FB79013B032B12D801A252F823F05A
:101260007112000075120000791200007D1200005A
:10127000074B06E0074B04E0074B02E0074B00E09A
:10128000054B18460C37BD465DF8047B704700BF20
:1012900048E8010090D0030020A1070040420F0061
:1012A00080B582B000AF786078680EF0F7FA083742
:1012B000BD4680BD70B5284C94F88450002D49D1AE
:1012C000012684F884602E0104EB060CA65D86429C
:1012D0000AD1BCF80860C6F30D068E4204D11E4B3D
:1012E000002283F8842033E00135082DEBD194F8F7
:1012F0008060194D0136F6B2072E88BF002685F8AA
:10130000806094F880C0144E4FEA0C1C04EB0C056E
:1013100004F80C006A60AB729DF81020EB7A288903
:1013200062F341039DF8142062F30003EB7294F81A
:101330008230072BCCBF0123013361F30D00CCBFFA
:1013400086F8833086F882300023288184F8843040
:10135000012070BD002070BD000C002038B52F4B5F
:1013600093F8842005461C46002A54D1012283F8B4
:10137000842000F055F820B100220023C5E90023A5
:1013800038BD94F881300133DBB2072B8CBF84F871
:10139000810084F8813094F881301B010120E35CE6
:1013A0002B7094F8813004EB03131A892B8962F3B4
:1013B0000D032B8194F8813004EB03135B686B60A1
:1013C00094F8813004EB03139B7AAB7294F881306C
:1013D00004EB0313DA7AEB7AC2F3400262F34103BF
:1013E000EB7294F8813004EB0313DA7AEB7A62F350
:1013F0000003EB7294F88110002204EB011100232A
:10140000C1E9002394F88230013B84F88230002344
:1014100084F8843038BD002038BD00BF000C0020A7
:10142000034B93F88200D0F1010038BF00207047D1
:10143000000C002013B5144662B99DF814200092E8
:101440009DF8182001921A469DF81030FFF732FFE0
:10145000204600E0012002B010BD00BF2DE9704F12
:10146000164610704FEA104A020A4FEA106842EA24
:1014700001620B0A4AEA014A4FEA114B48EA012885
:101480004FEA1169727086F802A086F80380317104
:10149000737186F806B086F80790BDE8708F00BFBC
:1014A0002DE9304F427890F8028090F805A0002591
:1014B000002314022B434FEA08424FF00009224355
:1014C00090F80080C47849EA0309002349EA030937
:1014D00003794FEA0A2548EA020890F806A0220696
:1014E00048EA020849EA0309002249EA050948EAEC
:1014F00002084FEA0A4590F807A048EA020849EABC
:10150000050948EA02084FEA0A6542EA080445EA82
:101510000905C1E90045BDE8308F00BF03684A1ED8
:1015200043FA02F2012A05D14FF0FF3202FA01F12B
:101530000B430360704700BF038810B54A1E1CB2FE
:1015400044FA02F2012A05D14FF6FF7202FA01F1C4
:101550000B43038010BD00BF2DE9F04F85B04FF65F
:10156000FF7402929DF8445001900022039347F6C5
:10157000FF701346164694465FFA82F8884516D2E5
:10158000019F37F812A00FFA84FB0FFA8AF9D945A8
:101590000FFA80FBC8BF5446C8BFC446D945B8BF80
:1015A00050464B4402F10102B8BF4646E4E709B990
:1015B000012D0BD0022D06D0032D06D0012D05D113
:1015C00093FBF1F302E003B200E023B2029A14802D
:1015D000039A10800E9A82F800C00F9A1670109A23
:1015E000136005B0BDE8F08F10B500231A46DCB2D9
:1015F0008C4204D250F8234001332244F7E71046CE
:1016000010BD00BF10B500231A46DCB28C4204D2D4
:1016100030F9134001332244F7E7104610BD00BFF4
:101620002DE9F8434B00083303F47E7300AFADEBB4
:10163000030D6B46002942D00022D4B28C4205D261
:1016400030F8124023F812400132F6E74E08002528
:1016500001F1FF3CEAB262451BDA541CE4B21046C9
:101660008C4209D233F9149033F91080C145B8BFC8
:1016700020460134E4B2F3E7904211D000B233F8CF
:10168000124033F8108023F81280B24223F8104041
:1016900006D9CA0706D5CCF3470C33F81C000FE077
:1016A0000135D7E7721ED2B233F91210013233F985
:1016B00012301944022391FBF3F188B200E008468E
:1016C00000B2BD46BDE8F88330B50023DCB29442D9
:1016D00016D2CC5C444064F0FF0440F0FF00204090
:1016E000082400F00105400825B180F4204080F076
:1016F000010080B2013C14F0FF04F2D10133E5E7B0
:1017000030BD00BF4FF47A72026241F28832426209
:1017100040F6E44282620346094AC262782100220E
:101720000270198240F6A431598240F63A410120F4
:10173000998296215870D9821A765876704700BFE0
:10174000908501002DE97343104D814600262846FF
:10175000884685F8306000F035F849460446424630
:101760002846FFF7CFFF00B14CB9012300220193B7
:101770000096412065211346FFF79CFD002420467A
:1017800085F8304002B0BDE8708300BF880C0020AF
:1017900080B483B000AF7860094B93F8303083F0A9
:1017A0000103DBB2002B01D0002303E07B68044A75
:1017B0001A60012318460C37BD465DF8047B70475C
:1017C000880C00200222C27682774FF0FF3200237D
:1017D000012142620D4AC262837603774177C37763
:1017E000036283620322C2540133102BFBD1C8234E
:1017F000038240F67233438240F6084383826423B7
:10180000C38200230376437601207047AC85010034
:10181000034602490248034A00F03CB80004002095
:10182000BC0C00202D1B0000034602490248034A5D
:1018300000F030B81C040020D00C0020751B000004
:10184000014800F0C9B800BFBC0C0020014800F0FE
:10185000C3B800BFD00C0020014800F0DFB800BFC3
:10186000BC0C0020014800F0FBB800BFBC0C0020FD
:10187000014800F0F5B800BFD00C0020014800F08E
:101880001BB900BFBC0C0020014800F015B900BF17
:10189000D00C002070B5002545749E79072E0446B3
:1018A00013D8DE791F2E10D8016082601A6842605A
:1018B0009A8882819A88C2819A79DB7943EA4213B5
:1018C0000374012500F004F86574284670BD00BF5C
:1018D00080B584B000AF78607B681B681B681846D1
:1018E00036F09CFE00BF7B681B681B68184614F02E
:1018F00035FB034683F00103DBB2002BF3D17B6899
:101900001B685A687B681B689B681046194614F070
:101910006CFC7B681B685A687B681B68DB68104638
:10192000194614F06BFC7B681B685B681846002145
:1019300014F0C2FC7B681B685A687B681B689B6854
:1019400010461946012214F0A7FC14F041FB024690
:101950007B689B891046194600F0C8F8F8607B68E0
:101960001B685A687B681B689B6810461946FA68B2
:1019700014F0A5FC7B681B6859687B681B689A6833
:101980007B681B681B69084611461A4614F078FCF0
:101990007B681B685A697B681B7C1046194614F0EB
:1019A00069FA7B681B6859687B681B689A687B6862
:1019B0009B68084611461A4614F098FC7B681B6821
:1019C0005A687B681B689B691046194614F09BFC9B
:1019D0001037BD4680BD00BF80B582B000AF7860D3
:1019E0007B685B7C83F00103DBB2002B01D000231A
:1019F00010E07B681B685A687B681B689B68104610
:101A0000194614F0E9FB7B681B685B69184614F003
:101A100045FA012318460837BD4680BD80B582B01F
:101A200000AF78607B685B7C83F00103DBB2002B46
:101A300001D0002310E07B681B685A687B681B6834
:101A40009B681046194614F0D0FB7B681B685B69E5
:101A5000184614F053FA012318460837BD4680BDD6
:101A600080B584B000AF78607B685B7C83F0010355
:101A7000DBB2002B01D0002319E07B68DA897B6898
:101A80009A8114F0A5FA02467B689B891046194694
:101A900000F02CF8F8607B681B685A687B681B684C
:101AA0009B6810461946FA6814F009FC0123184691
:101AB0001037BD4680BD00BF80B582B000AF7860F2
:101AC0007B685B7C83F00103DBB2002B00D009E074
:101AD0007B681B685A687B681B689B6910461946BF
:101AE00014F015FC0837BD4680BD00BF06EE900A15
:101AF000B8EE667A06EE901AF8EE667ADFED096ABD
:101B0000C6EEA77AC7EE277A9FED077AF4EE477AFA
:101B1000F1EE10FAC8BFF0EE477AFCEEE77A17EE66
:101B2000900A7047002474490000804F10B500F0FF
:101B300043F904460C4800F041F800F03DF9001B61
:101B400000F052F9094B1A6800EB80015F2404FB96
:101B500002126421B2FBF1F21A60054B1A6890423E
:101B600088BF186010BD00BFBC0C0020E40C002032
:101B7000E80C002010B500F01FF904460C4800F0F6
:101B80001DF800F019F9001B00F02EF9094B1A6836
:101B900000EB80015F2404FB02126421B2FBF1F22E
:101BA0001A60054B1A68904288BF186010BD00BFCC
:101BB000D00C0020EC0C0020F00C002010B50446E6
:101BC000FFF77AFF637C5BB1636803B19847A28932
:101BD000E3899A4204D02046BDE81040FFF740BF99
:101BE00010BD00BF80B582B000AFC7E90001484B0F
:101BF000002283F82B2014F0A1FA464B1B686033B7
:101C00001B6898470246444BA3FB02139B091846E6
:101C100014F0B2FA414814F099FA14F0A5FA14F04D
:101C200085FA3F4836F0FAFC00BF3D4814F096F9BB
:101C3000034683F00103DBB2002BF6D13948FF21C4
:101C400014F0D3FA3748322114F0D8FA354800217D
:101C500014F032FB3348FF21012214F01DFB314800
:101C6000FF214FF0FF3214F02AFB2E48FF2140F2F3
:101C7000044214F005FB2B48FF2114F0ADFA24496F
:101C80004FF000024FF00003C1E9002320494FF05C
:101C900000024FF00003C1E902231D4B00229A61AC
:101CA0001B494FF000024FF00003C1E90423184B19
:101CB0000022DA61164B00221A62164B1B68603351
:101CC0001B6898470246184BA3FB02139A0C104B53
:101CD0005A620F4B002283F828200D4B002283F814
:101CE00029200B4B002283F82A200949D7E9002339
:101CF000C1E90023064B012283F82820044B01226E
:101D000083F82B20012318460837BD4680BD00BF4D
:101D1000F80C002044000001D34D6210011E0000A9
:101D2000010400F00010034083DE1B4370B50D4C2E
:101D300094F82B509DB194F82A6086B1002304F1E9
:101D4000100084F82A3003F021F8042807D1D4E9E0
:101D50000423C4E90023012384F8283035462846AB
:101D600070BD00BFF80C0020044B93F82B201AB173
:101D70000121986183F8291010467047F80C002063
:101D8000014BD3E902017047F80C002006490346D5
:101D900091F82B0030B1D3E90023C1E904230123DA
:101DA00081F82A30704700BFF80C0020014B186AF8
:101DB000704700BFF80C002080B500AF084B93F8C7
:101DC0002B3083F00103DBB2002B01D0002304E0B1
:101DD0000448FF2114F07CFA0346184680BD00BF7A
:101DE000F80C002000100340044A92F82B301BB17D
:101DF000536AB0FBF3F0704718467047F80C0020A8
:101E0000104991F8283033B1D1E90023C1E9022308
:101E1000002381F8283091F829200A4B22B19A69D1
:101E2000DA61002283F82920D1E90223013243F14B
:101E30000003C1E90223CB690133CB610B6A013393
:101E40000B627047F80C002090B587B002AFF871B4
:101E5000B980BA717B80FA7907F10C0310461946F4
:101E600000F06AF8034683F00103DBB2002B01D0D7
:101E7000002309E0F868B988BA797B8897F8204090
:101E8000009400F07BF8034618461437BD4690BD19
:101E900080B584B000AF786013460A46FA70BB7014
:101EA000FA7807F10C031046194600F045F803468E
:101EB00083F00103DBB2002B06D07B6800221A609E
:101EC0007B6800221A7107E0FA687968BB780846D7
:101ED00011461A4600F0A6F878681037BD4680BD56
:101EE00080B584B000AF02460B46FA71BB80FA7928
:101EF00007F108031046194600F01EF8034683F068
:101F00000103DBB2002B04D000233B730023FB81D1
:101F100007E0BA68BB881046194600F0A9F80346E6
:101F2000FB600023BA8962F30F03FA8962F31F434F
:101F300018461037BD4680BD80B483B000AF03465D
:101F40003960FB71FB79002B02D0012B05D009E031
:101F50003B68084A1A60012305E03B68064A1A609C
:101F6000012300E0002318460C37BD465DF8047BD2
:101F7000704700BF2C3E00209C3E002073B50446F5
:101F8000FF294FF000009DF8185084F86D0007D02D
:101F900040F2FF36B14203D040F6FF76B1423FD166
:101FA00002F0F700042803D0082A01D0102A36D105
:101FB000A3F5FA6080B2B0F57A7F30D8012D2ED823
:101FC000A4F86410A4F868304FF6FF7105FB0333E2
:101FD00084F86620A4F86A1000220321013B84F8EB
:101FE0006C1084F86750227384F8602084F86120B4
:101FF00084F8622084F863209BB2214610460432A4
:10200000402A08844B8401F10401F8D16846214636
:1020100000F054F80120646084F86D0000E00020B6
:1020200002B070BD10B591F86D3004461BB9204662
:1020300000F044F81AE00F2AF9D891F8663093427C
:10204000F5D991F86730496003F001039B0143F42F
:10205000C05302F00F0243EAC21201230B720023A5
:102060000A800B73043103C984E80300204610BDC5
:1020700090F86D3082B013B98DF8043010E090F80C
:102080006720C1F30B0302FB0333B0F8682053430E
:10209000B0F86420090B013293FBF2F38DF80410C1
:1020A000ADF80630BDF80430002063F30F00BDF832
:1020B000063063F31F4002B0704700BF00220A726F
:1020C0000A8049600431034603C983E803001846C7
:1020D000704700BF73B502AD114B02681A6000244F
:1020E00005F8014D1C711E4604EB440231688B1843
:1020F000895CE2B2914201D000200EE09A782AB9C0
:102100000134022CF0D10120307106E028465978C4
:1021100001F01EFC0028F3D1EEE702B070BD00BF55
:10212000280D002037B5114B1C79002105468DF88C
:1021300007100CB9012315E00DF1070000F018F8A5
:10214000044658B19DF8073063B90DF1070001212D
:1021500000F00EF810B19DF8073003E001232B705A
:10216000002400E02B70204603B030BD280D002075
:102170002DE97741164D0446287900268DF8076031
:1021800068B12B6801EB410843449A780AB9227080
:102190001AE00DF10700597801F0DAFB08B90123C4
:1021A0000DE02B6843449B78012B04D0022B08D10F
:1021B0009DF8073003E09DF8073083F0010323709A
:1021C00002E001232370304603B0BDE8708100BFF8
:1021D000280D00202DE9704FBDF92080454CBDF839
:1021E00024B09A46C2454FF0000323707EDA072AD6
:1021F0007CD803287AD80C2978D83F4C3F4D2070E2
:102200003F48404C017040494048086001260B712E
:102210004B718E713E493F4808600B714B718E7156
:102220001846A9461946A44609EB000329F800A060
:1022300020F80C10A3F802809980A3F806B000EBF8
:102240000C031030302859809980D9802A72697225
:10225000AE72EE7229736973AE7321726172A672E7
:10226000E67221736173A67305F1100504F1100481
:10227000DAD1294B002403F14E00012500229C52A3
:102280000232182AFBD11D761A3383424FF0010126
:10229000F4D1224B4FF6FF721A805A80DA801A81ED
:1022A0009A81DA811971997219741D4B002203F118
:1022B0001E0023F8082C23F8062C23F8042C23F8FE
:1022C000022C1A7059700A338342F2D10022154D44
:1022D00014460120511954530632122A8C704FF0C3
:1022E0000103C8700871F5D1024A13701846BDE8A1
:1022F000708F00BF8C0E00208E0E0020940D0020E9
:102300008D0E0020C40D0020480D0020300D00204F
:102310008C0D0020500D0020F40D0020440E0020F4
:10232000600E0020780E0020074B1B784BB1074B46
:102330001B78834205D9064B03EB00108172012004
:1023400070470020704700BF8C0E00208E0E0020CA
:10235000940D00202DE97841144B1B7880460E46E1
:1023600013B90020BDE87881114B1B788342F8D95E
:10237000104B187815F098FC02460B4600204FF0E1
:10238000804114F077F804460D46304615F09CFC69
:1023900022462B4615F084FF0028E2D1064B03EBC2
:1023A000081301209E80BDE8788100BF8C0E0020BC
:1023B0008E0E00208D0E0020940D002010B50A4BCB
:1023C0001B787BB107280DD8084B094C1A780023DD
:1023D000D9B2914204D204EB031101330872F7E73A
:1023E000012010BD002010BD8C0E00208E0E00209C
:1023F000940D002013B5084B5B7B04460BB10D23F5
:1024000000E00F2300931021B022022300F052FCC1
:10241000204602B010BD00BF940D0020012913B565
:102420000B46044605D10F2300931E219A22022356
:1024300005E0022906D10F2200921F219D2200F003
:1024400039FC01E000F026FC204602B010BD00BFC0
:1024500013B5084B5B7B04460BB10D2300E00F2343
:10246000202100930A46022300F024FC204602B0FB
:1024700010BD00BF940D002013B50523009330213B
:1024800050220223044600F015FC204602B010BD85
:10249000012913B50B46044605D1052300933E21BF
:1024A0007A22022305E0022906D1052200923F216B
:1024B0007D2200F0FFFB01E000F0ECFB204602B0C3
:1024C00010BD00BF13B511230093522179220223BE
:1024D000044600F0EFFB204602B010BD13B5084BD8
:1024E0005B7B04460BB10D2300E00F2300936021BA
:1024F000E722022300F0DEFB204602B010BD00BF41
:10250000940D002013B50B4B1B78044613B900F053
:10251000C1FB0BE0084B1B78C3EBC3030022023363
:1025200000920221CE22DBB200F0C4FB204602B0B2
:1025300010BD00BF8C0E00208E0E002013B50F4B77
:102540001B78044613B900F0A5FB13E00C4B5A7B33
:102550000C4B1B780AB11B0103E003EBC30203EB36
:102560004203002202330092DBB220460421DC2227
:1025700000F0A0FB204602B010BD00BF8C0E002072
:10258000940D00208E0E002013B50C4B1B780446D2
:1025900013B900F07FFB0DE0094B1B7803EB4303FD
:1025A0005B000022023300920E21EA2203F0FE03B8
:1025B00000F080FB204602B010BD00BF8C0E002052
:1025C0008E0E002013B50B4B1B78044613B900F098
:1025D00061FB0BE0084B1B7803EB43030022023343
:1025E000009254216B22DBB200F064FB204602B063
:1025F00010BD00BF8C0E00208E0E00202DE9704F04
:102600002DED048B464B1B7884B005461BB928463C
:1026100000F040FB7EE0434C01232370C72363702E
:10262000414B93F80080414B93F80BA05A7A99885C
:10263000B3F806C04FEA8A1A4AEAC21A1A7A02F0B6
:1026400007024AEA020A9A7A4AEA421A1A7B4AEAD4
:10265000021A5A7B5FFA81FB4AEAC20A090A5FFA48
:102660008CF241EA0212B3F9001008EE901AB3F9A5
:10267000021009EE101A5FFA82F95FFA8AFACCF3B7
:10268000071C00262246B3EE088AF1B2414532D239
:10269000013603EB061111F8081C0729B7D8F8EE2C
:1026A000E87AA01CC7EE887A84F805C084F802A0F6
:1026B00084F803B084F8049002920193CDF80CC022
:1026C0000734FCEEE77A17EE901AF8EEC97A1F315C
:1026D000C7EE887A04F8011CFCEEE77A17EE901A30
:1026E00020312170062100F0B1FADDF80CC06070D5
:1026F000019B029AC9E70E4BC8EBC8081A6008F1A3
:102700000208002283F804805A719A7193E803004A
:1027100085E80300284604B0BDEC048BBDE8708F4B
:102720008C0E0020300D00208E0E0020940D002015
:10273000480D00202DE97043394B1B7805464BB1FD
:1027400040B1384B93F800800722022312FB083374
:10275000994202D000F0F6F95EE0841C4618B442BB
:1027600007D02046072100F08DFA07340028F6D163
:10277000F0E700262C4CB146F3B2434504F11004B7
:102780004AD2AB78DB0904F8073CAB78C3F380137B
:1027900004F8053CAB78C3F3401304F8063CAB786F
:1027A000C3F3001304F8043CAB78C3F3C00304F88C
:1027B000033CAB7803F0070304F8083C2B79EA7874
:1027C00003F00F0342EA032324F80C3C6B792A79C7
:1027D0001B0143EA121324F80A3CA8791F380001B0
:1027E00015F072FA0022114B15F0D4FA15F06CFDB9
:1027F00024F8100C15F8070F2038000115F064FAC2
:1028000000220A4B15F0C6FA15F05EFD013624F8D9
:102810000E0C04F8029CAFE70348BDE8708300BFCC
:102820008C0E00208E0E0020C40D00200000F83F0A
:102830002DE9734F434B1B787BB3434B1C78434BC1
:1028400001229B4607E05D7F103313F8036CAE4214
:1028500023D10132D2B2A242F5D39BF80D30002B26
:1028600014BF4FF010084FF0130814FB08F303F1E6
:10287000020314BF0A220C22994201920DD1344B5B
:10288000861C93F80090B2460025EAB2A24211D20B
:102890005046414600F0F6F910B900F07DF94DE0E0
:1028A0000BEB0512527B12B1B9F10A0FF5D80135C5
:1028B000C244EAE7274D4FF01A0A4FF0000904FB23
:1028C0000A5ACB46554539D00024E3B2DA070CD476
:1028D0005B0803EB430359FA83F3F218F35C507877
:1028E00000F00F0043EA00200CE0631E5B1003EBD6
:1028F0004303013359FA83F3F218F05C527800096C
:1029000040EA0210A0F5007007EE900AF8EEE77AB0
:1029100017EE900A15F0EAF900220F4B15F03AFA7B
:1029200015F0D2FC25F81400019A0134E3B2934269
:10293000CBD385F818B0C1441A35C3E7054802B0B7
:10294000BDE8708F8C0E00208E0E0020940D0020AC
:102950008D0E0020F40D00200000F83F2DE978478F
:10296000454B1B78054643B1444B93F80080062243
:10297000022312FB0833994202D000F02DF978E0CF
:10298000841C4618B44207D02046062100F07AF98C
:1029900006340028F6D1F0E70026394C4FF008093C
:1029A000B246F3B2434504F10A0462D2EB78AA7846
:1029B00003F00F0342EA032324F80A3CEB782A7958
:1029C00034F90A0C1B0943EA021324F8083CAB79DA
:1029D0006A7903F00F0342EA0323A0F5007024F89C
:1029E000063C07EE900A15F8063FF8EEE77AC3F3C7
:1029F000001317EE900A04F8023C15F077F9002254
:102A0000204B15F0C7F915F05FFC24F80A0C34F9D7
:102A1000080CA0F5007007EE900AF8EEE77A013690
:102A200017EE900A15F062F90022164B15F0B2F974
:102A300015F04AFC24F8080C34F9060CA0F50070D7
:102A400007EE900AF8EEE77A17EE900A15F04EF9C5
:102A500000220C4B15F09EF915F036FC80B224F8DC
:102A6000060C00B290FBF9F024F8040C04F801AC59
:102A700097E70348BDE878878C0E00208E0E002073
:102A8000580E00200000F83F2DE97043294B1B78B9
:102A900006464BB1284B93F800804FF00309022300
:102AA00019FB0833994202D000F0B6F83FE0841CCD
:102AB0004518AC4207D02046032100F0E3F8033468
:102AC0000028F6D1F0E7F41C1C4D09FB0866063619
:102AD0004FF000080334B44205F1060527D014F87E
:102AE000030C14F8043C00F00F0043EA0020A0F5AA
:102AF000007007EE900AF8EEE77A17EE900A15F0EC
:102B0000F5F80F4B002215F045F915F0DDFB25F81F
:102B1000060C14F8033CC3F3401305F8033C14F807
:102B2000033C05F8028C9B0905F8043CD2E70348F6
:102B3000BDE870838C0E00208E0E0020780E0020E1
:102B40000000F83F30B5124B1C78124B00204FF6B6
:102B5000FF710122C5B2A54203F1100317D223F879
:102B6000101C23F80E1C23F80C1C23F80A1C03F875
:102B7000081C03F8072C03F8062C03F8052C03F8AF
:102B8000042C03F8032C03F8022C0130E2E730BDDB
:102B90008E0E0020C40D002070B50C4B18780C4B25
:102BA00019780C4B1A2200FB0230002401258342C5
:102BB0000AD00022D6B28E4203D223F8124001324C
:102BC000F8E71D761A33F2E770BD00BF8E0E0020C5
:102BD0008D0E0020F40D00200D4B19780D4B0A20AE
:102BE00003F10A0210FB0121002201200A338B426B
:102BF0000CD023F80A2C23F8082C23F8062C23F8F1
:102C0000042C03F8022C03F8010CEFE7704700BF17
:102C10008E0E0020580E00200A4B19780A4B062011
:102C20009A1D10FB0120002201210633834208D0A7
:102C300023F8062C03F8042C03F8031C03F8021CE9
:102C4000F3E770478E0E0020780E002030B5002389
:102C500005464120DAB28A4213D2EA5C504008228B
:102C600010F0800F4FEA400418BF84F0070002F113
:102C7000FF3214BFC0B2E0B212F0FF02F0D1013354
:102C8000E8E730BD08B5FFF7E1FFD0F1010038BF3C
:102C9000002008BD064B00211960197159710121EE
:102CA0009971024693E8030082E8030010467047DA
:102CB0008C0D002038B50C4D2D78044615B9FFF762
:102CC000E9FF0EE009484270094A017013719DF84E
:102CD0001030537100231060937192E8030084E870
:102CE0000300204638BD00BF8C0E0020500D002090
:102CF0008C0D00207FB5364C002502A90DF107028E
:102D00000646029503958DF8075084F8F45000F0BC
:102D1000F9F808B9002058E09DF80730002BF9D0E9
:102D2000337823707378637004F17C00231D2A4686
:102D30001A605A609A60DA601A745A7414338342C3
:102D40004FF00001F4D101228023627584F829201C
:102D5000204A21486360029DA060022323756362BC
:102D600084F82830E1602161A561E0612162A2F16F
:102D70003003D967C3F8801008339342F9D1174B59
:102D8000002203F1200143F8042F8B424FF000058D
:102D90001A62F8D1307803A900F0E2F80028B9D01F
:102DA0000B4E039BC4F8EC303046012184F8F05000
:102DB00084F8F15084F8F25084F8F35000F0E6F80B
:102DC0000028A7D0012386F8F43004B070BD00BFFE
:102DD000900E0020C00E002000800340380F00201D
:102DE00038B50A4C94F8F430054663B120460849DA
:102DF0002A4600F0B3FA30B120462A460549BDE81C
:102E0000384000F0ABBA002038BD00BF900E002063
:102E100000800340009003402DE97841204C94F855
:102E2000F45080460E467DB3D4ED207AB8EEE77AB2
:102E3000DFED1C7AC7EE277A17EE900A14F056FFE2
:102E400002460B4612A1D1E9000114F0EFFD12A3D6
:102E5000D3E9002314F09EFF134B002214F0E6FD8B
:102E600015F05AFADFED117A07EE100A77EE277A9D
:102E7000B2EE047A67EE877AFDEEE77A17EE903AC3
:102E8000A8F80030E36F33602846BDE8788100BFC2
:102E90009A999999999905400000000000C0524004
:102EA000900E002000007A4400804B400080884350
:102EB00030B5124A92F8F430EBB11478033CE4B226
:102EC000042C15D8012505FA04F414F0130411D0CC
:102ED000D2ED227AB8EEE77ADFED097A67EE277A4B
:102EE000FDEEE77AC0ED007AD2F884200A6002E0B5
:102EF000002300E02346184630BD00BF900E00209E
:102F0000C74B8F4170B500230B60137016460278D3
:102F1000033AD2B2042A86B00D4601D9002019E046
:102F2000012404FA02F212F0130FF7D007228DF8F1
:102F300004200393084A094B029201A804938DF8D8
:102F400014408DF8154000F08DFB0028E6D00323D7
:102F50002B60347006B070BD040800F000400240E1
:102F6000072805D8DFE800F00C0C0C070C04040C53
:102F700000200860704740F6B8330B6001207047AE
:102F800040F6E4430B600120704700BF80B58CB071
:102F900000AF78600B46FB70002387F82F300023CA
:102FA00087F82E30002387F82D300023BB620023E2
:102FB0007B6200237B6100233B6100233B62002393
:102FC000FB600023FB7756E0FA7F796813469B008D
:102FD00013449B000B4410335B7983F00103DBB295
:102FE000002B00D044E0FA7F796813469B0013441D
:102FF0009B000B4408331B688B4A934203D08B4AD7
:1030000093420CD017E0FB7F87F82F307B680122BA
:1030100083F8F0207B68012283F8F2200DE0FB7F2B
:1030200087F82E307B68012283F8F1207B6801222B
:1030300083F8F32001E0002387E1FA7F79681346E3
:103040009B0013449B000B440C331B68002B0DD1D9
:10305000FA7F796813469B0013449B000B4410339E
:103060001B79082B01D900236FE101E000236CE1FB
:10307000FB7F0133FB77FB7F052BA5D97B6893F89A
:10308000F230002B02D06A4835F0C8FA7B6893F81A
:10309000F330002B02D0674835F0C0FA7B6893F814
:1030A000F230002B09D000BF614812F057FF0346F1
:1030B00083F00103DBB2002BF6D17B6893F8F33089
:1030C000002B09D000BF5B4812F048FF034683F095
:1030D0000103DBB2002BF6D17B6893F8F230002BB2
:1030E00003D05148002112F025FA7B6893F8F330A1
:1030F000002B03D04D48002112F01CFA7B6893F896
:10310000F030002B05D0484800210022032312F0A4
:1031100018FA7B6893F8F130002B05D04348002162
:103120000022032312F00DFA0023BB77BEE0BA7F22
:10313000796813469B0013449B000B4410335B7962
:1031400083F00103DBB2002B00D0ACE0BA7F7968DA
:1031500013469B0013449B000B4408331B68324A00
:10316000934203D0314A93421BD035E0BA7F79684D
:1031700013469B0013449B000B441033BA6A1A6039
:10318000BA7F796813469B0013449B000B441033AD
:103190001B79BA6A1344BB6297F82F3087F82D3039
:1031A0001CE0BA7F796813469B0013449B000B44D4
:1031B00010337A6A1A60BA7F796813469B00134409
:1031C0009B000B4410331B797A6A13447B6297F897
:1031D0002E3087F82D3001E00023B6E0BA7F796801
:1031E00013469B0013449B000B4410331B687B6108
:1031F000BA7F796813469B0013449B000B4410333D
:103200001968BA7F786813469B0013449B000344F7
:1032100010331B790B443B617B69BB613FE0BB69A9
:10322000072B09D9002390E0008003400090034061
:10323000003800F0013800F0BA7F796813469B002F
:1032400013449B000B4404331B683B62BA7F97F81E
:103250002D309A4208D13B695A1EBB699A4203D865
:103260003B6A43F020033B62BA7F796813469B00B8
:1032700013449B000B4408331968BA7F78681346DF
:103280009B0013449B0003440C331B6808461946FB
:10329000BA693B6A12F079F9BB690133BB61BA695B
:1032A0003B699A42BBD3BB7F0133BB77BB7F052B06
:1032B0007FF63DAF7B6893F8F230002B03D02548B2
:1032C000402112F0C5F97B6893F8F330002B03D04E
:1032D0002148402112F0BCF9FB78FB607B6893F831
:1032E000F230002B03D01B48F96812F0BAF97B6862
:1032F00093F8F330002B03D01748F96812F0B1F9B6
:103300007B6893F8F030002B03D01248002112F0B4
:1033100003F97B6893F8F130002B03D00E480021AD
:1033200012F0FAF87B6893F8F030002B03D00948CC
:10333000002112F0F8F87B6893F8F130002B03D0ED
:103340000548002112F0EFF8012318463037BD463A
:1033500080BD00BF008003400090034080B58CB06A
:1033600000AFF860B9607A600023BB6100237B6125
:103370000023BB62BB68574A934203D0564A93422C
:1033800007D00DE0FB68AC33FB62FB68F2337B6275
:1033900008E0FB68CC33FB62FB68F3337B6201E03F
:1033A000002392E07B6A1B78002B00F08D80B868C8
:1033B00012F05DF9034683F00103DBB2002B00F04D
:1033C0008380B8680021FA6A12F025F9002387F893
:1033D000233071E097F82320F96813469B001344CB
:1033E0009B000B4408331A68BB689A4200D05EE029
:1033F00097F82320F96813469B0013449B000B4465
:1034000010331B68BB6197F82320F96813469B00B3
:1034100013449B000B441033196897F82320F86875
:1034200013469B0013449B00034410331B790B4449
:103430007B610023BB62BB69FB610AE0FB699B0007
:10344000FA6A13441B68BA6A1344BB62FB6901330E
:10345000FB61FA697B699A42F0D397F82320F968F7
:1034600013469B0013449B000B4410331B79BA6A2C
:1034700092FBF3F3BB6297F82330FA680F33DB005B
:1034800013447A685A6097F82300FB68D3F8EC304D
:10349000BA6A02FB03F3002B01DA03F6FF731B1376
:1034A0001A46F96800F10F03DB000B449A6097F8A5
:1034B0002330013387F8233097F82330052B89D93F
:1034C000B868002112F0B7F8012318463037BD461E
:1034D00080BD00BF008003400090034080B483B0F3
:1034E00000AF78600B46FB707B6803F5A4630B4A62
:1034F0001A607B6803F224537A6802F2245211683E
:10350000FA780A431A607B6803F5A46300221A6004
:103510000C37BD465DF8047B704700BF4B434F4CF2
:1035200070B54A4C4A494B4AA1600023E2604FF013
:10353000FF0E6162A2624849484E61644FF47F42C7
:1035400084F8F431C4F810E06361A361E36184F8A6
:10355000203084F8213084F8223084F82330E2626D
:1035600023636363A36384F83C3084F83D3084F8BC
:103570003E3084F83F302664C4F848E0E3642365B5
:10358000636584F8583084F8593084F85A3084F8E8
:103590005B30E665216604F1780105466266A36644
:1035A000E366236784F8743084F8753084F87630E5
:1035B00084F8773000F062FA08B9002070BD284620
:1035C00004F1B80100F0C8FA0028F6D0284604F14A
:1035D000D00100F0E3FA0028EFD0284604F1E8011A
:1035E00000F000FB0028E8D0284604F59A7100F0AE
:1035F00063FB0028E1D0284604F5A67100F080FBAB
:103600000028DAD0284604F5A87100F08FFB0028C6
:10361000D3D0284604F5B47100F0BEFB0028CCD00E
:10362000284604F5DA7100F02BFC0028C5D004F11F
:10363000080000F04DFD0028BFD0094800F048FD0B
:103640000028BAD0012384F8F43170BD880F00201F
:10365000000400F00000034000300340030400F0C9
:10366000C80F002080B582B000AF78607B685B7CBB
:1036700083F00103DBB2002B01D00023B7E07B68AD
:103680005B68184634F0CAFF00BF7B685B68184669
:1036900012F064FC034683F00103DBB2002BF4D18B
:1036A0007B68DA687B681B7C10461946FFF716FFBB
:1036B0007B681B78082B00F2878001A252F823F068
:1036C000E5360000F7360000093700001B37000020
:1036D00047370000633700007F3700009B3700004A
:1036E000AD3700007B68DA687B681B7C10461946A2
:1036F00012F026FB6AE07B68DA687B681B7C104668
:10370000194612F02BFB61E07B68DA687B681B7C52
:103710001046194612F030FB58E07B689B6818464B
:1037200012F062FB7B68DA687B681B7C10461946E6
:1037300012F006FB7B68DA687B681B7C1046194632
:1037400012F044FB42E07B689B68184612F04CFB89
:103750007B68DA687B681B7C1046194612F036FBE2
:1037600034E07B689B68184612F03EFB7B68DA68A1
:103770007B681B7C1046194612F0D4FA26E07B6861
:103780009B68184612F030FB7B68DA687B681B7C0C
:103790001046194612F00CFB18E07B68DA687B686B
:1037A0001B7C1046194612F0AFFA0FE07B689B684D
:1037B000184612F019FB7B68DA687B681B7C1046A0
:1037C000194612F0E7FA01E0002310E07B68DA689E
:1037D0007B681B7C1046194600F038FC034683F0DA
:1037E0000103DBB2002B01D0002300E001231846C7
:1037F0000837BD4680BD00BF0C4B93F8F4219AB149
:1038000093F8B52082B1012908D004D302290BD145
:1038100003F1A00204E003F1780201E003F18C025D
:1038200093F8B41000F0ACBD00207047880F002062
:103830000C4B93F8F4219AB193F8B52082B1012989
:1038400008D004D302290BD103F1A00204E003F154
:10385000780201E003F18C0293F8B41000F0D8BDB7
:1038600000207047880F0020064A92F8F43133B1E7
:1038700092F8CC301BB10021B83200F0C9BD002055
:10388000704700BF880F0020064A92F8F43133B128
:1038900092F8E4301BB10021D03200F071BD00205D
:1038A000704700BF880F002073B5204C94F8F45186
:1038B000002306468DF806308DF807309DB394F846
:1038C000315185B394F8301109BB0DF1060004F1B4
:1038D000E80200F09DFD94F8E830032B054612D174
:1038E0000DF1070004F1FC0104F58C7200F0E2FC1C
:1038F0009DF806302840C5B20BB19DF8073003F0A3
:10390000010333700FE09DF8063033700BE00DF1CA
:10391000070004F1FC0104F58C7200F0CBFC9DF86B
:10392000073033700546284602B070BD880F00206E
:10393000064A92F8F4313BB192F8483123B10021A4
:1039400002F59A7200F01CBD00207047880F00201D
:1039500030B50B4C94F8F43183B194F864316BB109
:1039600014224A43A31893F861313BB131B902F5EF
:10397000A8722244BDE8304000F04ABD002030BDAE
:10398000880F002073B5204C94F8F45100230646AC
:103990008DF806308DF807309DB394F8B15185B39A
:1039A00094F8B01109BB0DF1060004F5B47200F0F3
:1039B0002FFD94F86831032B054612D10DF1070055
:1039C00004F5BE7104F5CC7200F074FC9DF806306D
:1039D0002840C5B20BB19DF8073003F001033370E6
:1039E0000FE09DF8063033700BE00DF1070004F591
:1039F000BE7104F5CC7200F05DFC9DF807303370A9
:103A00000546284602B070BD880F00200C4B93F885
:103A1000F4219AB193F8F12182B1012908D004D39D
:103A200002290BD103F5EE7204E003F5DA7201E02E
:103A300003F5E47293F8F01100F0A2BC0020704787
:103A4000880F00200C4B93F8F4219AB193F8F121E0
:103A500082B1012908D004D302290BD103F5EE72FB
:103A600004E003F5DA7201E003F5E47293F8F01173
:103A700000F0CEBC00207047880F002070B50023F6
:103A800081F83D3003780C46072B5ED8DFE803F061
:103A900004242424245D5D2402222D4D0A7000207C
:103AA0004D60886001232B49E16004262374637410
:103AB0002275A561E061216284F8246084F82530D4
:103AC00084F82820E5622063616384F8382084F854
:103AD000393084F83C301FE00221042200231C4DC1
:103AE0001C48217022742175012284F82410FF21C2
:103AF0006560A360E0606274A561E361206284F8A0
:103B0000252084F82810E3622363636384F8383047
:103B100084F8393084F83C202046FFF7A3FD0546A1
:103B200098B194F8253023B104F11400FFF79AFD01
:103B300058B194F8393023B104F12800FFF792FD11
:103B400018B1012384F83D3000E00025284670BDFF
:103B5000040800F00040024038B500230B750278DD
:103B6000072A0C4601D9002038BD012505FA02F2CA
:103B700012F09F0FF7D00B708B604FF04023064A76
:103B8000CB6040234A600B744D740846FFF76AFD12
:103B90000028E8D0257538BD000800F038B50023AE
:103BA0000B750278072A0C4601D9002038BD012583
:103BB00005FA02F212F09F0FF7D08B60074B084A0C
:103BC000CB6004230D704A600B744D740846FFF7F8
:103BD00049FD0028E9D0257538BD00BF00500240DE
:103BE000050800F038B5002381F849300C4601780B
:103BF000072901D9002551E0012202FA01F111F053
:103C00009F0FF7D0264D6560264DA560264DE560D7
:103C100008252574254D6561254DA5614FF47F4527
:103C2000E561244D2562032140F204452170627450
:103C30006562A36284F82C3084F82D3084F82E203D
:103C400084F82F20027952B1012A26D1022223635F
:103C50006363A363E263216484F8443006E0226373
:103C60006263A263E263216484F84420037984F8E8
:103C700048302046FFF7F6FC05460028BAD02378E6
:103C8000032B03D0012384F8493007E004F114002A
:103C900000F08EF90028F5D1ACE71D46284638BD66
:103CA000010800F0070C010000500040030400F080
:103CB000003003400013000438B500230B75027870
:103CC000072A0C4601D9002038BD012505FA02F269
:103CD00012F09F0FF7D08B60074B084ACB60802310
:103CE0000D704A600B744D740846FFF7BBFC00284A
:103CF000E9D0257538BD00BF00700040030800F012
:103D000038B500230B700278072A0C460AD8012523
:103D100005FA02F313F09F0304D000F005F810B188
:103D2000257038BD184638BD0120704738B50023CE
:103D30000B750B704B608B60CB600B744B7403780E
:103D4000072B0C4601D9002515E0012202FA03F3E6
:103D500013F09F0FF7D000F011F805460028F2D0BD
:103D6000637C13B90123237505E02046FFF77AFC35
:103D70000028F7D1E7E7284638BD00BF044B4B6069
:103D8000044BCB60012002230B744874704700BFC2
:103D9000050800F00050024038B5002381F8493092
:103DA0000C460178072901D900255AE0012202FAC0
:103DB00001F111F09F0FF7D02B4D65602B4DA560E1
:103DC0002B4DE560042525742A4D65612A4DA561BA
:103DD000FF25E561294D2562032140F2044521704C
:103DE00062746562A36284F82C3084F82D3084F804
:103DF0002E2084F82F20C278012A0BD002D38A42C9
:103E00002ED107E023636363A363E363216484F833
:103E1000443009E005220023E26303222363636345
:103E2000A363226484F84430C37803F0FD035A1E70
:103E30005342534184F848302046FFF713FC0546AF
:103E40000028B1D02378032B03D0012384F8493014
:103E500007E004F1140000F0ABF80028F5D1A3E767
:103E60001D46284638BD00BF010800F007080100C4
:103E700000500040030400F0003003401300000431
:103E800038B5002381F83D300278072A0C4601D965
:103E9000002038BD012303FA02F212F0980F02D17C
:103EA000530756D1F4E78278032A52D8DFE802F0AC
:103EB00002021E300023FF2222706360A360E360D1
:103EC000237463742275A361E361236284F8243050
:103ED00084F8253084F82820E3622363636384F840
:103EE000383084F8393084F83C3032E020252574AD
:103EF000274D28482849A5610022284D25622370B6
:103F00006060A260E16063742375E261022510E0E5
:103F10002349244AE1600221626021740022224880
:103F200022492370A26063742375A061E26121625B
:103F300020256163102184F8245084F8253084F80A
:103F40002830E062226384F8381084F8393084F82D
:103F50003C20637C1BB994F8253063B105E0204612
:103F6000FFF780FB0028F6D192E704F11400FFF779
:103F700079FB00288CD094F839302BB104F128005B
:103F8000FFF770FB002883D0012084F83D0038BD86
:103F9000050800F0040800F0004002400050024014
:103FA00000500040010800F0020800F000600040EE
:103FB00070B50246C07E002840D05468204B9C4219
:103FC00005D003F540539C4233D11E4900E01E4901
:103FD0009368B3F57F4F06D04FF6FF75AB4205D01F
:103FE000FF2B26D102E001F11C0300E00B461E6806
:103FF0001568AE421DD1DE7EDEB98D684FF6FF7CBE
:10400000654504D1CD7EB5B991F83710A9B95C608A
:1040100091689960D168D9601169196151695961D4
:10402000117E1976517E5976917E9976D27EDA7616
:1040300070BD002070BD304670BD284670BD00BF09
:1040400000000340C80F0020900F00201D4B984235
:1040500025D00DD8A3F50053984218D003F580530E
:10406000984218D0B0F1402F2AD1174B1A7821E08E
:10407000164B984217D003F58053984217D0A3F5FA
:10408000005398421CD1104B13F8042F12E00E4B32
:1040900013F8012F0EE00C4B13F8022F0AE00A4B25
:1040A00013F8032F06E0084B13F8052F02E0064B28
:1040B00013F8062F0A4203D10A431A7001207047F1
:1040C0000020704700700040880F00200050024020
:1040D00080B584B000AF78607B681B68FB607B684C
:1040E0005B68BB607B68DB7E83F00103DBB2002B87
:1040F00009D07B6893F8373083F00103DBB2002BE3
:1041000001D0012345E0F86834F088FA00BFF86870
:1041100011F024FF034683F00103DBB2002BF6D13C
:104120007B689A687B685B6A134343F0FF03B86857
:10413000194612F05AF87B68DA687B689B6A134369
:10414000B868194612F05AF87B68184600F026F84D
:10415000034683F00103DBB2002B01D0002318E0FB
:104160007B681C33184600F019F8034683F00103FE
:10417000DBB2002B01D000230BE07B689A687B68E0
:104180005B6A134343F0FF03B868194612F024F842
:10419000012318461037BD4680BD00BF80B586B0EC
:1041A00000AF786011F014FF786100233B610023B9
:1041B000FB607B68DB7E002B74D07B6859687B6872
:1041C0009A687B689B7E084611461A4612F064F88E
:1041D0007B68DB6803F00303032B13D07B68DB6889
:1041E00003F01303132B0DD07B68DB6803F44073DB
:1041F000B3F5407F06D07B68DB6803F49853B3F5D2
:10420000985F0AD17B6859687B689A687B681B69EC
:10421000084611461A4612F033F87B68DB6803F053
:104220000A030A2B06D07B68DB6803F42063B3F52E
:10423000206F37D17B685B697A69B2FBF3F33B612E
:104240003A694FF6FE739A4203D87B681B7E642B53
:1042500001D9002327E07B681B7E3A6902FB03F249
:10426000134BA3FB02135B09FB607B6859687B68F7
:104270009A687B685B7E084611461A4611F0F0FF8B
:104280007B685A687B689B68104619463A6912F049
:1042900016F87B685A687B689B6810461946FA686E
:1042A00012F01BF8012318461837BD4680BD00BF29
:1042B0001F85EB5180B588B000AFF860B9607A60B7
:1042C000BB68DB7E83F00103DBB2002B01D000234F
:1042D00050E00023BB610023FB61FDF76DFD7861B9
:1042E0007B681B687A69D31A1846FDF77DFD386133
:1042F0007B681B694FF47A7202FB03F23B699A42B6
:1043000033D8BB685A68BB689B681046194611F0E1
:10431000DFFFB861BB68DB6803F08063002B06D069
:104320007B685B68BA69D31A9BB2FB6104E07B6867
:104330005B68BA69D31AFB61FB69104A02FB03F29E
:104340003B69B2FBF3F27B689A607B68DA68FB69D1
:104350009A428CBF00230123DAB27B681A757B680E
:104360007A691A607B68BA695A607B681A7DFB6853
:104370001A70012318462037BD4680BD40420F0009
:1043800080B584B000AF0B463A600246FA71BB714B
:104390000023FB733B685B7C83F00103DBB2002BE3
:1043A00001D000232FE0FB79002B05D0BB7983F0EF
:1043B0000103DBB2002B08D1FB7983F00103DBB2F0
:1043C000002B04D0BB79002B01D0012300E0002397
:1043D000FB73FB7B03F00103FB73FB7B002B02D021
:1043E0003B681B7C03E03B681B7CDB43DBB2BB739D
:1043F0003B68D9683B681A7CBB7B084611461A4665
:1044000011F07FFC012318461037BD4680BD00BF68
:1044100080B586B000AFF8600B467A60FB727B68AF
:104420005B7C83F00103DBB2002B01D0002326E08C
:104430007B68DA687B681B7C1046194611F05EFCCD
:104440000346002B0CBF00230123FB75FB7A002BD6
:104450000CD0FB7D002B0CBF00230123DBB283F0CB
:104460000103DBB203F00103DBB205E0FB7D002BAF
:104470000CBF00230123DBB2FA6813700123184636
:104480001837BD4680BD00BF13B5002302288DF844
:10449000073001D9002021E0012804D002280CBFF8
:1044A0000224002400E00446012902D0022903D09E
:1044B0000FE08DF807100CE00DF107002146FFF723
:1044C000B7F90028E6D09DF8073083F001038DF896
:1044D00007309DF807002146FFF78EF902B010BDA6
:1044E00013B5002302288DF8073001D9002021E000
:1044F000012804D002280CBF0224002400E0044656
:10450000012902D0022903D00FE08DF807100CE03A
:104510000DF107002146FFF795FA0028E6D09DF837
:10452000073083F001038DF807309DF8070021461E
:10453000FFF76CFA02B010BD08B500F047FE042882
:1045400007D101F051F9042803D101F075F90428CD
:1045500003D0BDE8084001F023B908BD80B584B0A0
:1045600002AF78600B467B80194B1B7883F0010308
:10457000DBB2002B01D0032326E07B889B00B3F540
:10458000006F01DD01231FE0124B1B78002B0DD0C3
:104590007B88002200920022019235204FF4A07106
:1045A0001A460023FCF786FE02230DE0094B012288
:1045B0001A707B889B0078681946042233F040FF0C
:1045C000044B00221A70042318460837BD4680BDEC
:1045D000811100208011002080B586B002AF786084
:1045E0000B467B800423FB73244B1B7883F0010371
:1045F000DBB2002B01D003233CE07B889B00B3F5AA
:10460000006F01DD012335E01D4B1B78002B0DD021
:104610007B88002200920022019235204FF4B47171
:104620001A460023FCF746FE022323E0144B012226
:104630001A707B889B0007F1080210461946042275
:1046400033F0FEFEBA687B689A420DD07B889B00EF
:104650003A1D10461946042233F012FF0346002B80
:1046600004D00023FB7301E00423FB73044B0022FE
:104670001A70FB7B18461037BD4680BD81110020A3
:104680008011002000F020BE1FB5044601A90120C2
:104690000C2200F025FE042802D001F081F80AE087
:1046A0009DF8042022719DF805206271029A2280F3
:1046B000BDF80C20628004B010BD00BF1FB50446D9
:1046C00001A901200C2200F00BFE042811D123794E
:1046D0008DF8043063798DF805302388029301202A
:1046E0006388ADF80C3001A90C2200F04FFE0428BD
:1046F00002D001F055F8FFE704B010BD1FB5044625
:1047000001A900200C2200F0EBFD042802D001F0EA
:1047100047F80BE09DF804206271BDF80C20228060
:10472000BDF8082062809DF80B20227104B010BDF6
:104730001FB5044601A900200C2200F0D1FD042879
:1047400012D163798DF804302388ADF80C3063887A
:10475000ADF80830002023798DF80B3001A90C2228
:1047600000F014FE042802D001F01AF8FFE704B0AC
:1047700010BD00BF1FB5044601A900200C2200F0A7
:10478000AFFD042802D001F00BF802E09DF80E20E6
:10479000227004B010BD00BF1FB5044601A900205F
:1047A0000C2200F09DFD042809D123788DF80E30ED
:1047B000002001A90C2200F0E9FD042802D000F03D
:1047C000EFFFFFE704B010BD1FB5044601A90020AC
:1047D0000C2200F085FD042802D000F0E1FF06E085
:1047E0009DF80A20D2B2032A88BF0022227004B0AA
:1047F00010BD00BF1FB5044601A900200C2200F027
:104800006FFD042809D123788DF80A30002001A912
:104810000C2200F0BBFD042802D000F0C1FFFFE72E
:1048200004B010BD1FB5044669460820102200F0F0
:1048300057FD042802D000F0B3FF01E0029A226085
:1048400004B010BD1FB5044669460820102200F0D0
:1048500047FD042808D123680293082069461022E6
:1048600000F094FD042802D000F09AFFFFE704B0A6
:1048700010BD00BF1FB5044669460820102200F095
:104880002FFD042802D000F08BFF05E0BDF80E20BC
:104890002280BDF80C20628004B010BD1FB5044614
:1048A00069460820102200F01BFD04280CD1238843
:1048B000ADF80E3008206388ADF80C306946102240
:1048C00000F064FD042802D000F06AFFFFE704B0A6
:1048D00010BD00BF13B5082204466946092000F048
:1048E000FFFC042802D000F05BFF0BE0BDF80620BF
:1048F000E280BDF802206280BDF80420A280BDF8ED
:104900000020228002B010BD13B50822044669467B
:10491000092000F0E5FC042812D1E388ADF8063048
:104920006388ADF80230A388ADF8043009202388ED
:10493000ADF800306946082200F028FD042802D0B6
:1049400000F02EFFFFE702B010BD00BF13B5082234
:10495000044669460A2000F0C3FC042802D000F097
:104960001FFF0BE0BDF80620E280BDF80220628048
:10497000BDF80420A280BDF80020228002B010BD46
:1049800013B50822044669460A2000F0A9FC042851
:1049900012D1E388ADF806306388ADF80230A38801
:1049A000ADF804300A202388ADF8003069460822AB
:1049B00000F0ECFC042802D000F0F2FEFFE702B0A9
:1049C00010BD00BF13B50822044669460B2000F055
:1049D00087FC042802D000F0E3FE0BE0BDF80620BF
:1049E000E280BDF802206280BDF80420A280BDF8FC
:1049F0000020228002B010BD13B50822044669468B
:104A00000B2000F06DFC042812D1E388ADF80630CD
:104A10006388ADF80230A388ADF804300B202388FA
:104A2000ADF800306946082200F0B0FC042802D03E
:104A300000F0B6FEFFE702B010BD00BF13B50822BC
:104A4000044669460C2000F04BFC042802D000F01C
:104A5000A7FE0BE0BDF80420A280BDF80220628012
:104A6000BDF80620E280BDF80020228002B010BD13
:104A700013B50822044669460C2000F031FC0428D6
:104A800012D1A388ADF804306388ADF80230E38812
:104A9000ADF806300C202388ADF8003069460822B6
:104AA00000F074FC042802D000F07AFEFFE702B0A8
:104AB00010BD00BF13B50822044669460D2000F062
:104AC0000FFC042802D000F06BFE08E0BDF80420C3
:104AD000A280BDF802206280BDF80020228002B0D2
:104AE00010BD00BF13B50822044669460D2000F032
:104AF000F7FB04280FD1A388ADF804306388ADF824
:104B000002300D202388ADF800306946082200F0FD
:104B10003DFC042802D000F043FEFFE702B010BDC8
:104B20001FB5044601A900200C2200F0D9FB04287F
:104B300002D000F035FE02E09DF80F20227004B094
:104B400010BD00BF1FB5044601A900200C2200F0D3
:104B5000C7FB042809D123788DF80F30002001A964
:104B60000C2200F013FC042802D000F019FEFFE72D
:104B700004B010BD13B50822044669460F2000F0AA
:104B8000AFFB042802D000F00BFE11E09DF80020DE
:104B900022709DF80320E2709DF80220A2709DF81B
:104BA000052062719DF8042022719DF80120627039
:104BB00002B010BD13B50822044669460F2000F06C
:104BC0008FFB042818D123788DF80030E3788DF816
:104BD0000330A3788DF8023063798DF8053023799E
:104BE0008DF804300F2063788DF801306946082273
:104BF00000F0CCFB042802D000F0D2FDFFE702B0A9
:104C000010BD00BF13B5082204466946102000F00D
:104C100067FB042802D000F0C3FD08E0BDF80020C7
:104C20002280BDF802206280BDF80420A28002B07C
:104C300010BD00BF13B5082204466946112000F0DC
:104C40004FFB042802D000F0ABFD13E0BDF80020BC
:104C50002280BDF80220A2809DF80420E280BDF8E9
:104C600000109DF8052052B202EB8202520012FAA7
:104C700081F2628002B010BD13B508220446694675
:104C8000112000F02DFB042818D1A2882388ADF84C
:104C90000220E2888DF80420B4F90220ADF800303B
:104CA0001BB2D31A0A2293FBF2F3112069460822A1
:104CB0008DF8053000F06AFB042802D000F070FD8A
:104CC000FFE702B010BD00BF13B5082204466946D5
:104CD000112000F005FB042802D000F061FD02E085
:104CE000BDF80620228002B010BD00BF13B5082217
:104CF00004466946112000F0F3FA042809D12388FC
:104D0000ADF8063011206946082200F03FFB042868
:104D100002D000F045FDFFE702B010BD13B50C4B0B
:104D20005A7804460AB9002009E01A78132AFAD8FA
:104D300012206946082300F0CFFB042802D000F0BF
:104D40002FFD03E0DDE90023C4E9002302B010BD1C
:104D50008811002010B50C4B0146587878B11C78AA
:104D6000621CD2B2132A88BF00221A701A7812204D
:104D7000082300F049FC042805D0034B1C70BDE853
:104D8000104000F00DBD10BD8811002010B5A8B076
:104D9000044669461220A02200F0A2FA042811D18C
:104DA000D4E90023ADF1080126A8E1E902238142FC
:104DB000FBD112206946A02200F0E8FA042801D1B4
:104DC00000F012FD28B010BD10B590B00446694641
:104DD0001420402200F084FA042802D000F0E0FC05
:104DE0000BE0002310A901EB430232F8402C24F819
:104DF00013200133202BF5D1042010B010BD00BFCB
:104E000010B590B0044669461420402200F068FABC
:104E100004280CD10022A35A2DF802300232402A75
:104E2000F9D11420694600F0B1FA042802D000F04C
:104E3000B7FCFFE710B010BD10B590B0044669464E
:104E40001520402200F04CFA042802D000F0A8FC03
:104E50000BE0002310A901EB430232F8402C24F8A8
:104E600013200133202BF5D1042010B010BD00BF5A
:104E700010B590B0044669461520402200F030FA83
:104E800004280CD10022A35A2DF802300232402A05
:104E9000F9D11520694600F079FA042802D000F013
:104EA0007FFCFFE710B010BD10B590B00446694616
:104EB0001620402200F014FA042802D000F070FC02
:104EC0000BE0002310A901EB430232F8402C24F838
:104ED00013200133202BF5D1042010B010BD00BFEA
:104EE00010B590B0044669461620402200F0F8F94B
:104EF00004280CD10022A35A2DF802300232402A95
:104F0000F9D11620694600F041FA042802D000F0D9
:104F100047FCFFE710B010BD10B590B004466946DD
:104F20001720402200F0DCF9042802D000F038FC01
:104F30000BE0002310A901EB430232F8402C24F8C7
:104F400013200133202BF5D1042010B010BD00BF79
:104F500010B590B0044669461820402200F0C0F910
:104F6000042802D000F01CFC0BE0002310A901EB88
:104F7000430232F8402C24F813200133202BF5D1C2
:104F8000042010B010BD00BF13B50C4B5A78044676
:104F90000AB9002009E01A78092AFAD819206946C6
:104FA000082300F099FA042802D000F0F9FB03E08E
:104FB000DDE90023C4E9002302B010BD8C110020FC
:104FC00010B50C4B0146587878B11C78621CD2B2EF
:104FD000092A88BF00221A701A781920082300F0C5
:104FE00013FB042805D0034B1C70BDE8104000F0F3
:104FF000D7BB10BD8C11002010B594B00446694693
:105000001920502200F06CF9042811D1D4E90023B2
:10501000ADF1080112A8E1E902238142FBD1192078
:105020006946502200F0B2F9042801D100F004FCD6
:1050300014B010BD10B586B0044601A91F2014227B
:1050400000F04EF9042802D000F0AAFB08E09DF819
:105050000A2022709DF80B2062709DF80C20A2702F
:1050600006B010BD10B586B0044601A91F20142259
:1050700000F036F904280FD123788DF80A306378D0
:105080008DF80B301F20A3788DF80C3001A9142265
:1050900000F07CF9042802D000F082FBFFE706B0A4
:1050A00010BD00BF10B586B0044601A91F20142210
:1050B00000F016F9042802D000F072FB14E09DF80D
:1050C000042022709DF8052062709DF80820A270CF
:1050D0009DF80D20E2709DF80F2022719DF81020A0
:1050E00062719DF81420A27106B010BD10B586B093
:1050F000044601A91F20142200F0F2F804281BD155
:1051000023788DF8043063788DF80530A3788DF816
:105110000830E3788DF80D3023798DF80F306379FE
:105120008DF810301F20A3798DF8143001A91422B6
:1051300000F02CF9042802D000F032FBFFE706B0A3
:1051400010BD00BF10B586B0044601A91F2014226F
:1051500000F0C6F8042802D000F022FB0EE09DF813
:10516000062022709DF8072062709DF81220A27020
:105170009DF81320E2709DF81620227106B010BD34
:1051800010B586B0044601A91F20142200F0A8F82B
:10519000042815D123788DF8063063788DF8073010
:1051A000A3788DF81230E3788DF813301F2023791F
:1051B0008DF8163001A9142200F0E8F8042802D076
:1051C00000F0EEFAFFE706B010BD00BF80B582B078
:1051D00000AF3A4B1B78002B01D004236AE038481B
:1051E00033F01CFA00BF364810F0B8FE034683F0D7
:1051F0000103DBB2002BF6D133F002F90346002B9A
:1052000001D0002356E00023FB8000237B7144E0A3
:105210007A792C4913465B0013445B000B441B78DE
:105220007A799A4222D17A79264913465B0013444F
:105230005B000B445B88FA889A4217D87A79214937
:1052400013465B0013445B000B449B8803F003038D
:105250009BB2002B0AD17A791A4913465B0013449A
:105260005B000B449B88B3F5FA7F01D9002321E052
:105270007A79144913465B0013445B000B44598848
:105280007A79104813465B0013445B0003449B8803
:105290000B44FB807B7901337B717B791F2BB7D962
:1052A000FB88B3F5006F01D9002303E0034B012213
:1052B0001A70042318460837BD4680BD81110020AE
:1052C000005800F0C885010080B500AF10F024FC44
:1052D0000346002B01D0002300E00423184680BDC4
:1052E00080B586B002AF0346B9607A60FB73244B89
:1052F0001B7883F00103DBB2002B01D003233AE0DB
:10530000FA7B204913465B0013445B000B449B88E7
:105310001A467B689A4201D001232CE01A4B1B7875
:10532000002B0CD0FB7B0022009200220192352042
:1053300040F60D410022FBF7BDFF02231BE0124B9C
:1053400001221A70FA7B0F4913465B0013445B007D
:105350000B445B881946FA7B0A4813465B001344EA
:105360005B0003449B88B8681A4633F069F8064B23
:1053700000221A70042318461037BD4680BD00BFB6
:1053800081110020C88501008011002080B58AB0FD
:1053900002AF0346B9607A60FB730423FB77BB68F6
:1053A0007B610023BB77484B1B7883F00103DBB2A2
:1053B000002B01D0032383E0FA7B444913465B00B2
:1053C00013445B000B449B881A467B689A4201D0C9
:1053D000012375E0FA7B3D4913465B0013445B00F3
:1053E0000B449B88B3F5FA7F01D9002368E0384B62
:1053F0001B78002B0CD0FB7B002200920022019234
:10540000352040F63A410022FBF754FF022357E0D3
:105410002F4B01221A70FA7B2C4913465B00134470
:105420005B000B445B881946FA7B284813465B00F7
:1054300013445B0003449B8826481A4633F000F867
:105440000023BB610FE0234ABB6913441A787969D2
:10545000BB690B441B789A4202D00123BB770EE054
:10546000BB690133BB61FA7B184913465B001344E7
:105470005B000B449B881A46BB699A42E3D8BB7F0A
:10548000002B19D0FA7B114913465B0013445B00D3
:105490000B445B881946FA7B0C4813465B001344A7
:1054A0005B0003449B88B8681A4632F0E9FF034664
:1054B000002B01D00023FB77054B00221A70FB7FE5
:1054C00018462037BD4680BD81110020C8850100E7
:1054D000801100209011002080B588B002AFB96023
:1054E0007B600346FB731346BB7304237B75424BFF
:1054F0001B7883F00103DBB2002B01D0032377E09C
:105500003E4B1B78002B0CD0FB7B0022009200222C
:105510000192352040F673410022FBF7CBFE0223B7
:1055200066E0364B01221A70FB7B192B1CD01B2B1B
:1055300034D0122B4DD1BB7B132B01D901237B75AA
:10554000A0222F4BA3FB02131B099BB21A467B68B8
:105550009A4201D001237B75F822BB7B9BB2DB0012
:105560009BB21344FB8236E0BB7B092B01D901239C
:105570007B755022224BA3FB0213DB089BB21A4619
:105580007B689A4201D001237B754FF44672BB7B46
:105590009BB2DB009BB21344FB821CE0BB7B182B4D
:1055A00001D901237B754FF4C872164BA3FB02137C
:1055B000DB089BB21A467B689A4201D001237B75B7
:1055C0004FF45C72BB7B9BB21B019BB21344FB820A
:1055D00001E001237B757B7D042B05D1FB8AB86834
:1055E00019467A6832F02CFF044B00221A707B7D3A
:1055F00018461837BD4680BD81110020801100205B
:10560000CDCCCCCC1F85EB5180B58AB002AFB96050
:105610007B600346FB731346BB730423FB77BB68B5
:105620003B610023FB76594B1B7883F00103DBB20F
:10563000002B01D00323A5E0554B1B78002B0CD089
:10564000FB7B0022009200220192352040F6CD41E2
:105650000022FBF72FFE022394E04D4B01221A702B
:10566000FB7B192B1CD01B2B34D0122B4DD1BB7BB9
:10567000132B01D90123FB77A022464BA3FB021376
:105680001B099BB21A467B689A4201D00123FB7723
:10569000F822BB7B9BB2DB009BB21344BB8336E09A
:1056A000BB7B092B01D90123FB775022394BA3FB8C
:1056B0000213DB089BB21A467B689A4201D0012391
:1056C000FB774FF44672BB7B9BB2DB009BB213446B
:1056D000BB831CE0BB7B182B01D90123FB774FF464
:1056E000C8722D4BA3FB0213DB089BB21A467B68E2
:1056F0009A4201D00123FB774FF45C72BB7B9BB2D3
:105700001B019BB21344BB8301E00123FB777B6841
:10571000B3F5FA7F01D9002334E0FB7F042B05D1D8
:10572000BB8B1E4819467A6832F08AFE00237B61E3
:105730000FE01A4A7B6913441A7839697B690B4474
:105740001B789A4202D00123FB7606E07B69013385
:105750007B617A697B689A42EBD3FB7F042B0DD186
:10576000FB7E002B0AD0BB8BB86819467A6832F0F2
:1057700087FE0346002B01D00023FB77044B002259
:105780001A70FB7F18462037BD4680BD811100206E
:1057900080110020CDCCCCCC1F85EB519011002086
:1057A00003281ED8DFE800F0020910170D4B1A7805
:1057B000FF2A16D001321A7070470A4B5A78FF2A16
:1057C0000FD001325A707047064B9A78FF2A08D0E2
:1057D00001329A707047034BDA78FF2A1CBF0132FE
:1057E000DA7070478411002070B5A8B012206946A5
:1057F000A022FFF775FD042819D1002425460022B8
:10580000002328A901EBC40656E928018B4208BFF2
:1058100082425FFA84FC02D256E9282365460134AD
:10582000142CEED1034B01221D705A70042028B0B5
:1058300070BD00BF8811002070B594B01920694672
:105840005022FFF74DFD042819D1002425460022DF
:10585000002314A901EBC40656E914018B4208BFCA
:1058600082425FFA84FC02D256E914236546013471
:105870000A2CEED1034B01221D705A70042014B083
:1058800070BD00BF8C1100202DE97041D94E85B04C
:105890000024347100F0C4F9012502462346332167
:1058A0000095019402953620FBF7C4FD804600F078
:1058B000CBF9022302468DE83800342123463620F6
:1058C000FBF7B8FD00EA08005FFA80F800F0DEF9A7
:1058D000032302468DE83800352123463620FBF7A6
:1058E000A9FD08EA000800F0D3F904230246362097
:1058F0008DE8380001462346FBF79CFD08EA0008C6
:1059000000F0DCF9052302468DE8380037212346F4
:105910003620FBF78FFD08EA000800F0EFF90623B8
:1059200002468DE83800382123463620FBF782FDF9
:1059300008EA000800F00EFA072302468DE8380056
:10594000392123463620FBF775FD08EA000800F0F0
:1059500029FA082302468DE838003A2123463620EA
:10596000FBF768FD08EA000800F044FA0923024644
:105970008DE838003B2123463620FBF75BFD08EA23
:10598000000800F07DFA0A2302468DE838003C2129
:1059900023463620FBF74EFD08EA000800F0AAFA7D
:1059A0000C2302468DE838003D2123463620FBF7C4
:1059B00041FD08EA000800F0C3FA0D2302468DE815
:1059C00038003E2123463620FBF734FD08EA000864
:1059D00000F0CEFA0E2302468DE838003F21234620
:1059E0003620FBF727FD08EA000800F0DDFA0F2358
:1059F00002468DE83800402123463620FBF71AFD89
:105A000008EA000800F008FB102302468DE8380081
:105A1000412123463620FBF70DFD08EA000800F07F
:105A2000FDFA112302468DE8380042212346362034
:105A3000FBF700FD08EA000800F00CFB1223024609
:105A40008DE83800432123463620FBF7F3FC08EAB3
:105A5000000800F043FB1C2302468DE83800442177
:105A600023463620FBF7E6FC08EA000800F038FB86
:105A70000B2302468DE83800452123463620FBF7EC
:105A8000D9FC08EA000800F02DFB132302468DE83C
:105A90003800462123463620FBF7CCFC08EA0008F4
:105AA00000F022FB172302468DE8380047212346E9
:105AB0003620FBF7BFFC08EA000800F01FFB1823A4
:105AC00002468DE83800482123463620FBF7B2FC19
:105AD00008EA000800F01CFB142302468DE8380099
:105AE000492123463620FBF7A5FC08EA000800F010
:105AF00065FB152302468DE838004A2123463620EF
:105B0000FBF798FC08EA000800F086FB1623024623
:105B10008DE838004B2123463620FBF78BFC08EA42
:105B2000000800F00DFC1A2302468DE838004C21D5
:105B300023463620FBF77EFC08EA000800F002FC52
:105B4000192302468DE838004D2123463620FBF705
:105B500071FC08EA000800F0F7FB1B2302468DE801
:105B600038004E2123463620FBF764FC08EA000883
:105B700000F0ECFB1E2302468DE838004F2123463F
:105B80003620FBF757FC08EA000800F0FDFC1D2357
:105B900002468DE83800502123463620FBF74AFCA8
:105BA00008EA000800F0F2FC1F23024651218DE8AC
:105BB000380036202346FBF73DFC08EA0008304653
:105BC00000F0C6FB08EA0008B01C00F0BDFC08EAC3
:105BD0000008304600F0CCFCFF2302468DE8380078
:105BE0005C2123463620FBF725FC08EA00003571CE
:105BF00002E000BF8413002005B0BDE8708100BF43
:105C0000024B1A8802801879704700BF8413002065
:105C1000024B5A8802801879704700BF8413002015
:105C200007B56846FFF78EFA042808D19DF80300EF
:105C30000138C0B202288CBF0020012000E0002003
:105C400003B05DF804FB00BF07B501A8FFF7F2F948
:105C5000042817D19DF805009DF80430032898BF4B
:105C6000002B9DF80630A3F10302D2B214BF00202E
:105C70000120012A03D9DA1F5342534100E00123D6
:105C8000184000E0002003B05DF804FB01207047DD
:105C900007B56846FFF706FA04280AD19DF8020006
:105CA0009DF80530012898BF032B8CBF00200120F0
:105CB00000E0002003B05DF804FB00BF07B56846B4
:105CC000FFF762F9042812D1DDE90023B3F1FF3FA9
:105CD00008BFB2F1FF3F0CD1002300226846CDE996
:105CE0000023FFF789F9031F5842584102E00020C2
:105CF00000E0012003B05DF804FB00BF1FB501A860
:105D000007F070F908B302A8FEF7E4FD04281CD1DF
